{
  "contractName": "System",
  "abi": [
    {
      "inputs": [],
      "payable": false,
      "stateMutability": "nonpayable",
      "type": "constructor"
    },
    {
      "anonymous": false,
      "inputs": [
        {
          "indexed": true,
          "internalType": "uint256",
          "name": "_days",
          "type": "uint256"
        },
        {
          "indexed": true,
          "internalType": "address",
          "name": "_dveloper",
          "type": "address"
        },
        {
          "indexed": true,
          "internalType": "uint256",
          "name": "_penalty",
          "type": "uint256"
        }
      ],
      "name": "PutProject",
      "type": "event"
    },
    {
      "payable": true,
      "stateMutability": "payable",
      "type": "fallback"
    },
    {
      "constant": true,
      "inputs": [
        {
          "internalType": "address",
          "name": "",
          "type": "address"
        },
        {
          "internalType": "uint256",
          "name": "",
          "type": "uint256"
        }
      ],
      "name": "Developer_projects",
      "outputs": [
        {
          "internalType": "uint256",
          "name": "",
          "type": "uint256"
        }
      ],
      "payable": false,
      "stateMutability": "view",
      "type": "function"
    },
    {
      "constant": true,
      "inputs": [
        {
          "internalType": "uint256",
          "name": "",
          "type": "uint256"
        }
      ],
      "name": "ProjectDetails",
      "outputs": [
        {
          "internalType": "bool",
          "name": "isExist",
          "type": "bool"
        },
        {
          "internalType": "uint256",
          "name": "projectId",
          "type": "uint256"
        },
        {
          "internalType": "bool",
          "name": "isDeliver",
          "type": "bool"
        },
        {
          "internalType": "uint256",
          "name": "penaltyPercentagePerday",
          "type": "uint256"
        },
        {
          "internalType": "uint256",
          "name": "start_time",
          "type": "uint256"
        },
        {
          "internalType": "uint256",
          "name": "complete_time",
          "type": "uint256"
        },
        {
          "internalType": "uint256",
          "name": "projectPayment",
          "type": "uint256"
        },
        {
          "internalType": "address payable",
          "name": "projectDeveloper",
          "type": "address"
        },
        {
          "internalType": "uint256",
          "name": "Days",
          "type": "uint256"
        }
      ],
      "payable": false,
      "stateMutability": "view",
      "type": "function"
    },
    {
      "constant": true,
      "inputs": [],
      "name": "currProjectId",
      "outputs": [
        {
          "internalType": "uint256",
          "name": "",
          "type": "uint256"
        }
      ],
      "payable": false,
      "stateMutability": "view",
      "type": "function"
    },
    {
      "constant": true,
      "inputs": [],
      "name": "owner",
      "outputs": [
        {
          "internalType": "address payable",
          "name": "",
          "type": "address"
        }
      ],
      "payable": false,
      "stateMutability": "view",
      "type": "function"
    },
    {
      "constant": false,
      "inputs": [
        {
          "internalType": "uint256",
          "name": "_days",
          "type": "uint256"
        },
        {
          "internalType": "address payable",
          "name": "_dveloper",
          "type": "address"
        },
        {
          "internalType": "uint256",
          "name": "_penalty",
          "type": "uint256"
        }
      ],
      "name": "putProject",
      "outputs": [
        {
          "internalType": "bool",
          "name": "",
          "type": "bool"
        }
      ],
      "payable": true,
      "stateMutability": "payable",
      "type": "function"
    },
    {
      "constant": false,
      "inputs": [
        {
          "internalType": "uint256",
          "name": "_id",
          "type": "uint256"
        }
      ],
      "name": "Deliver",
      "outputs": [
        {
          "internalType": "bool",
          "name": "",
          "type": "bool"
        }
      ],
      "payable": false,
      "stateMutability": "nonpayable",
      "type": "function"
    },
    {
      "constant": false,
      "inputs": [
        {
          "internalType": "uint256",
          "name": "_id",
          "type": "uint256"
        }
      ],
      "name": "start",
      "outputs": [
        {
          "internalType": "bool",
          "name": "",
          "type": "bool"
        }
      ],
      "payable": false,
      "stateMutability": "nonpayable",
      "type": "function"
    },
    {
      "constant": false,
      "inputs": [
        {
          "internalType": "uint256",
          "name": "_id",
          "type": "uint256"
        }
      ],
      "name": "ReleasePayment",
      "outputs": [
        {
          "internalType": "bool",
          "name": "",
          "type": "bool"
        }
      ],
      "payable": false,
      "stateMutability": "nonpayable",
      "type": "function"
    },
    {
      "constant": true,
      "inputs": [],
      "name": "balance",
      "outputs": [
        {
          "internalType": "uint256",
          "name": "",
          "type": "uint256"
        }
      ],
      "payable": false,
      "stateMutability": "view",
      "type": "function"
    },
    {
      "constant": false,
      "inputs": [
        {
          "internalType": "uint256",
          "name": "_id",
          "type": "uint256"
        }
      ],
      "name": "del",
      "outputs": [
        {
          "internalType": "bool",
          "name": "",
          "type": "bool"
        }
      ],
      "payable": false,
      "stateMutability": "nonpayable",
      "type": "function"
    },
    {
      "constant": false,
      "inputs": [],
      "name": "OwnerWithdraw",
      "outputs": [
        {
          "internalType": "bool",
          "name": "",
          "type": "bool"
        }
      ],
      "payable": false,
      "stateMutability": "nonpayable",
      "type": "function"
    },
    {
      "constant": true,
      "inputs": [],
      "name": "getList",
      "outputs": [
        {
          "internalType": "uint256[]",
          "name": "",
          "type": "uint256[]"
        }
      ],
      "payable": false,
      "stateMutability": "view",
      "type": "function"
    }
  ],
  "bytecode": "0x608060405234801561001057600080fd5b50336000806101000a81548173ffffffffffffffffffffffffffffffffffffffff021916908373ffffffffffffffffffffffffffffffffffffffff160217905550600060038190555061106e806100686000396000f3fe6080604052600436106100a75760003560e01c806395805dad1161006457806395805dad146102b1578063a28e5c3d14610304578063b1d4705914610357578063b69ef8a8146103c6578063c75d5d42146103f1578063ca8a391c146104ac576100a7565b80630ea1d86a146100a95780632c84d560146100fc5780632e5d895a1461012b57806357771a231461019b5780638da5cb5b146101ee578063942b765a14610245575b005b3480156100b557600080fd5b506100e2600480360360208110156100cc57600080fd5b81019080803590602001909291905050506104d7565b604051808215151515815260200191505060405180910390f35b34801561010857600080fd5b50610111610599565b604051808215151515815260200191505060405180910390f35b6101816004803603606081101561014157600080fd5b8101908080359060200190929190803573ffffffffffffffffffffffffffffffffffffffff169060200190929190803590602001909291905050506106bc565b604051808215151515815260200191505060405180910390f35b3480156101a757600080fd5b506101d4600480360360208110156101be57600080fd5b81019080803590602001909291905050506108c7565b604051808215151515815260200191505060405180910390f35b3480156101fa57600080fd5b506102036109ed565b604051808273ffffffffffffffffffffffffffffffffffffffff1673ffffffffffffffffffffffffffffffffffffffff16815260200191505060405180910390f35b34801561025157600080fd5b5061025a610a12565b6040518080602001828103825283818151815260200191508051906020019060200280838360005b8381101561029d578082015181840152602081019050610282565b505050509050019250505060405180910390f35b3480156102bd57600080fd5b506102ea600480360360208110156102d457600080fd5b8101908080359060200190929190505050610aa7565b604051808215151515815260200191505060405180910390f35b34801561031057600080fd5b5061033d6004803603602081101561032757600080fd5b8101908080359060200190929190505050610bc4565b604051808215151515815260200191505060405180910390f35b34801561036357600080fd5b506103b06004803603604081101561037a57600080fd5b81019080803573ffffffffffffffffffffffffffffffffffffffff16906020019092919080359060200190929190505050610f16565b6040518082815260200191505060405180910390f35b3480156103d257600080fd5b506103db610f44565b6040518082815260200191505060405180910390f35b3480156103fd57600080fd5b5061042a6004803603602081101561041457600080fd5b8101908080359060200190929190505050610f4c565b604051808a151515158152602001898152602001881515151581526020018781526020018681526020018581526020018481526020018373ffffffffffffffffffffffffffffffffffffffff1673ffffffffffffffffffffffffffffffffffffffff168152602001828152602001995050505050505050505060405180910390f35b3480156104b857600080fd5b506104c1610fd4565b6040518082815260200191505060405180910390f35b60006001600083815260200190815260200160002060000160009054906101000a900460ff1661050657600080fd5b600180600084815260200190815260200160002060020160006101000a81548160ff021916908315150217905550600061055f600160008581526020019081526020016000206004015442610fda90919063ffffffff16565b9050610575600a82610ff190919063ffffffff16565b60016000858152602001908152602001600020600801819055506001915050919050565b60008060009054906101000a900473ffffffffffffffffffffffffffffffffffffffff1673ffffffffffffffffffffffffffffffffffffffff163373ffffffffffffffffffffffffffffffffffffffff16146105f457600080fd5b6000809054906101000a900473ffffffffffffffffffffffffffffffffffffffff1673ffffffffffffffffffffffffffffffffffffffff163373ffffffffffffffffffffffffffffffffffffffff161461064d57600080fd5b6000809054906101000a900473ffffffffffffffffffffffffffffffffffffffff1673ffffffffffffffffffffffffffffffffffffffff166108fc479081150290604051600060405180830381858888f193505050501580156106b4573d6000803e3d6000fd5b506001905090565b60006003600081548092919060010191905055506040518061012001604052806001151581526020016003548152602001600015158152602001838152602001600081526020018581526020013481526020018473ffffffffffffffffffffffffffffffffffffffff168152602001600081525060016000600354815260200190815260200160002060008201518160000160006101000a81548160ff0219169083151502179055506020820151816001015560408201518160020160006101000a81548160ff021916908315150217905550606082015181600301556080820151816004015560a0820151816005015560c0820151816006015560e08201518160070160006101000a81548173ffffffffffffffffffffffffffffffffffffffff021916908373ffffffffffffffffffffffffffffffffffffffff1602179055506101008201518160080155905050600260008473ffffffffffffffffffffffffffffffffffffffff1673ffffffffffffffffffffffffffffffffffffffff1681526020019081526020016000206003549080600181540180825580915050906001820390600052602060002001600090919290919091505550818373ffffffffffffffffffffffffffffffffffffffff16857f7b17c132a810db850f57a3709f154be1629ea0be5d64e0dc65504ccebbfcbec260405160405180910390a4600190509392505050565b60008060009054906101000a900473ffffffffffffffffffffffffffffffffffffffff1673ffffffffffffffffffffffffffffffffffffffff163373ffffffffffffffffffffffffffffffffffffffff161461092257600080fd5b6001600083815260200190815260200160002060000160009054906101000a900460ff1661094f57600080fd5b60016000838152602001908152602001600020600080820160006101000a81549060ff021916905560018201600090556002820160006101000a81549060ff021916905560038201600090556004820160009055600582016000905560068201600090556007820160006101000a81549073ffffffffffffffffffffffffffffffffffffffff02191690556008820160009055505060019050919050565b6000809054906101000a900473ffffffffffffffffffffffffffffffffffffffff1681565b6060600260003373ffffffffffffffffffffffffffffffffffffffff1673ffffffffffffffffffffffffffffffffffffffff168152602001908152602001600020805480602002602001604051908101604052809291908181526020018280548015610a9d57602002820191906000526020600020905b815481526020019060010190808311610a89575b5050505050905090565b6000813373ffffffffffffffffffffffffffffffffffffffff166001600083815260200190815260200160002060070160009054906101000a900473ffffffffffffffffffffffffffffffffffffffff1673ffffffffffffffffffffffffffffffffffffffff1614610b1857600080fd5b6000809054906101000a900473ffffffffffffffffffffffffffffffffffffffff1673ffffffffffffffffffffffffffffffffffffffff163373ffffffffffffffffffffffffffffffffffffffff161415610b7257600080fd5b6001600084815260200190815260200160002060000160009054906101000a900460ff16610b9f57600080fd5b4260016000858152602001908152602001600020600401819055506001915050919050565b6000813373ffffffffffffffffffffffffffffffffffffffff166001600083815260200190815260200160002060070160009054906101000a900473ffffffffffffffffffffffffffffffffffffffff1673ffffffffffffffffffffffffffffffffffffffff1614610c3557600080fd5b6000809054906101000a900473ffffffffffffffffffffffffffffffffffffffff1673ffffffffffffffffffffffffffffffffffffffff163373ffffffffffffffffffffffffffffffffffffffff161415610c8f57600080fd5b6001600084815260200190815260200160002060000160009054906101000a900460ff16610cbc57600080fd5b6001600084815260200190815260200160002060020160009054906101000a900460ff16610ce957600080fd5b60006001600085815260200190815260200160002060050154600160008681526020019081526020016000206008015411610d80573373ffffffffffffffffffffffffffffffffffffffff166108fc60016000878152602001908152602001600020600601549081150290604051600060405180830381858888f19350505050158015610d7a573d6000803e3d6000fd5b50610f0b565b600160008581526020019081526020016000206005015460016000868152602001908152602001600020600801541115610f0a57610df360016000868152602001908152602001600020600501546001600087815260200190815260200160002060080154610fda90919063ffffffff16565b90506000610e5b82610e4d6064610e3f600160008b815260200190815260200160002060030154600160008c81526020019081526020016000206006015461100a90919063ffffffff16565b610ff190919063ffffffff16565b61100a90919063ffffffff16565b90506000610e88826001600089815260200190815260200160002060060154610fda90919063ffffffff16565b90506001600087815260200190815260200160002060070160009054906101000a900473ffffffffffffffffffffffffffffffffffffffff1673ffffffffffffffffffffffffffffffffffffffff166108fc829081150290604051600060405180830381858888f19350505050158015610f06573d6000803e3d6000fd5b5050505b5b600192505050919050565b60026020528160005260406000208181548110610f2f57fe5b90600052602060002001600091509150505481565b600047905090565b60016020528060005260406000206000915090508060000160009054906101000a900460ff16908060010154908060020160009054906101000a900460ff16908060030154908060040154908060050154908060060154908060070160009054906101000a900473ffffffffffffffffffffffffffffffffffffffff16908060080154905089565b60035481565b600082821115610fe657fe5b818303905092915050565b600080828481610ffd57fe5b0490508091505092915050565b6000808284029050600084148061102957508284828161102657fe5b04145b61102f57fe5b809150509291505056fea265627a7a72315820af88d6547d3cd80a82aaaa11948698eea9dd7561e242a9710b2d622ff0b35abd64736f6c63430005100032",
  "source": "pragma solidity ^0.5.12;\r\n  library SafeMath {\r\n\r\n  function mul(uint256 a, uint256 b) internal pure returns (uint256) {\r\n    uint256 c = a * b;\r\n    assert(a == 0 || c / a == b);\r\n    return c;\r\n  }\r\n\r\n  function div(uint256 a, uint256 b) internal pure returns (uint256) {\r\n    uint256 c = a / b;\r\n    return c;\r\n  }\r\n\r\n  function sub(uint256 a, uint256 b) internal pure returns (uint256) {\r\n    assert(b <= a);\r\n    return a - b;\r\n  }\r\n\r\n  function add(uint256 a, uint256 b) internal pure returns (uint256) {\r\n    uint256 c = a + b;\r\n    assert(c >= a);\r\n    return c;\r\n  }\r\n  }\r\ncontract System {\r\n    using SafeMath for uint256;\r\n    address payable public owner;\r\n   struct project{\r\n        bool isExist;\r\n        uint256 projectId;\r\n        bool isDeliver;\r\n        uint256 penaltyPercentagePerday;\r\n        uint256 start_time;\r\n        uint256 complete_time;\r\n        uint256 projectPayment;\r\n        address payable projectDeveloper;\r\n        uint256 Days;\r\n    }\r\n    mapping(uint256=>project)public ProjectDetails;\r\n    mapping(address=>uint256[])public Developer_projects;\r\n    uint256 public currProjectId;\r\n    \r\n    constructor()public{\r\n        owner=msg.sender;\r\n        currProjectId=0;\r\n    }\r\n   event PutProject(uint256 indexed _days,address indexed _dveloper,uint256 indexed _penalty);\r\n    modifier onlyOwner(){\r\n        require(msg.sender==owner);\r\n        _;\r\n    }\r\n    modifier onlyProjectdeveloper(uint256 _id){\r\n        require(ProjectDetails[_id].projectDeveloper==msg.sender);\r\n        require(msg.sender!=owner);\r\n        _;\r\n    }\r\n    function putProject(uint256 _days,address payable _dveloper,uint256 _penalty)public payable  returns(bool){\r\n        currProjectId++;\r\n        ProjectDetails[currProjectId]=project({isExist:true,projectId:currProjectId,start_time:0,\r\n        complete_time:_days,projectPayment:msg.value,penaltyPercentagePerday:_penalty,projectDeveloper:_dveloper,isDeliver:false,Days:0});\r\n        Developer_projects[_dveloper].push(currProjectId);\r\n                \r\n\r\n    emit    PutProject( _days,_dveloper,_penalty);\r\n     return true;   \r\n    }\r\n    function Deliver(uint256 _id)public  returns(bool){\r\n        require(ProjectDetails[_id].isExist);\r\n        ProjectDetails[_id].isDeliver=true;\r\n        uint256 time=now.sub(ProjectDetails[_id].start_time);\r\n         ProjectDetails[_id].Days=time.div(10);  \r\n        return true;\r\n        \r\n    }\r\n    function start(uint256 _id)public onlyProjectdeveloper(_id) returns(bool){\r\n        require(ProjectDetails[_id].isExist);\r\n        ProjectDetails[_id].start_time=now;\r\n        return true;\r\n    }\r\n    function ReleasePayment(uint256 _id)public onlyProjectdeveloper(_id) returns(bool){\r\n        // project memory obj=ProjectDetails[_id];\r\n        require(ProjectDetails[_id].isExist);\r\n        require(ProjectDetails[_id].isDeliver);\r\n         uint256 t;\r\n        if(ProjectDetails[_id].Days<=ProjectDetails[_id].complete_time){\r\n            msg.sender.transfer(ProjectDetails[_id].projectPayment);\r\n        }\r\n            else if(ProjectDetails[_id].Days>ProjectDetails[_id].complete_time){\r\n                     t=ProjectDetails[_id].Days.sub(ProjectDetails[_id].complete_time);\r\n              uint256 v=(ProjectDetails[_id].projectPayment.mul(ProjectDetails[_id].penaltyPercentagePerday).div(100)).mul(t);\r\n              uint256 a=ProjectDetails[_id].projectPayment.sub(v);\r\n            ProjectDetails[_id].projectDeveloper.transfer(a); \r\n         }\r\n             return true;\r\n            }\r\n        function () external payable{\r\n        }\r\n        function balance()public view returns(uint256){\r\n            return address(this).balance;\r\n        }\r\n        function del(uint256 _id)public onlyOwner returns(bool){\r\n            require(ProjectDetails[_id].isExist);\r\n            delete ProjectDetails[_id];\r\n            return true;\r\n        }\r\n        function OwnerWithdraw()public onlyOwner returns(bool){\r\n            require(msg.sender==owner);\r\n            owner.transfer(address(this).balance);\r\n            return true;\r\n        }\r\n        function getList()public view returns(uint256[] memory){\r\n            return Developer_projects[msg.sender];\r\n        }\r\n}\r\n        ",
  "sourcePath": "C:\\Users\\dell\\Documents\\projects\\sysbi1\\sysbi\\contracts\\System.sol",
  "compiler": {
    "name": "solc",
    "version": "0.5.16+commit.9c3226ce.Emscripten.clang"
  },
  "schemaVersion": "3.2.1",
  "updatedAt": "2020-07-09T12:27:44.630Z",
  "networkType": "ethereum",
  "devdoc": {
    "methods": {}
  },
  "userdoc": {
    "methods": {}
  }
}